{
  "contractName": "Election",
  "abi": [
    {
      "constant": true,
      "inputs": [],
      "name": "candidatesCount",
      "outputs": [
        {
          "name": "",
          "type": "uint256"
        }
      ],
      "payable": false,
      "stateMutability": "view",
      "type": "function"
    },
    {
      "constant": true,
      "inputs": [
        {
          "name": "",
          "type": "uint256"
        }
      ],
      "name": "listCandidate",
      "outputs": [
        {
          "name": "id",
          "type": "uint256"
        },
        {
          "name": "name",
          "type": "string"
        },
        {
          "name": "voteCount",
          "type": "uint256"
        },
        {
          "name": "age",
          "type": "uint256"
        }
      ],
      "payable": false,
      "stateMutability": "view",
      "type": "function"
    },
    {
      "inputs": [],
      "payable": false,
      "stateMutability": "nonpayable",
      "type": "constructor"
    }
  ],
  "bytecode": "0x6060604052341561000f57600080fd5b600060018190555061006a6040805190810160405280600781526020017f43756f6e67446e00000000000000000000000000000000000000000000000000815250601561006f6401000000000261017d176401000000009004565b6101a1565b6001600081548092919060010191905055506080604051908101604052806001548152602001838152602001600081526020018281525060008060015481526020019081526020016000206000820151816000015560208201518160010190805190602001906100e09291906100fc565b5060408201518160020155606082015181600301559050505050565b828054600181600116156101000203166002900490600052602060002090601f016020900481019282601f1061013d57805160ff191683800117855561016b565b8280016001018555821561016b579182015b8281111561016a57825182559160200191906001019061014f565b5b509050610178919061017c565b5090565b61019e91905b8082111561019a576000816000905550600101610182565b5090565b90565b6102db806101b06000396000f30060606040526004361061004c576000357c0100000000000000000000000000000000000000000000000000000000900463ffffffff1680632d35a8a214610051578063d238d1731461007a575b600080fd5b341561005c57600080fd5b610064610148565b6040518082815260200191505060405180910390f35b341561008557600080fd5b61009b600480803590602001909190505061014e565b60405180858152602001806020018481526020018381526020018281038252858181546001816001161561010002031660029004815260200191508054600181600116156101000203166002900480156101365780601f1061010b57610100808354040283529160200191610136565b820191906000526020600020905b81548152906001019060200180831161011957829003601f168201915b50509550505050505060405180910390f35b60015481565b600060205280600052604060002060009150905080600001549080600101908060020154908060030154905084565b6001600081548092919060010191905055506080604051908101604052806001548152602001838152602001600081526020018281525060008060015481526020019081526020016000206000820151816000015560208201518160010190805190602001906101ee92919061020a565b5060408201518160020155606082015181600301559050505050565b828054600181600116156101000203166002900490600052602060002090601f016020900481019282601f1061024b57805160ff1916838001178555610279565b82800160010185558215610279579182015b8281111561027857825182559160200191906001019061025d565b5b509050610286919061028a565b5090565b6102ac91905b808211156102a8576000816000905550600101610290565b5090565b905600a165627a7a723058202fe8728267322834cce94b071146900d7b63208db87ba4d47615a442e8e6e8230029",
  "source": "pragma solidity ^0.4.11;\r\n\r\ncontract Election {\r\n\r\n    struct Candidate {  // information of Candidate\r\n       \r\n        uint id;\r\n        string name;\r\n        uint voteCount;\r\n        uint age;\r\n    }\r\n    mapping (uint=>Candidate) public listCandidate;\r\n    uint public candidatesCount;\r\n\r\n    function Election() public {\r\n        candidatesCount = 0;\r\n        addCandidate(\"CuongDn\",21);\r\n    }  \r\n    function addCandidate(string name,uint age) private {\r\n        candidatesCount ++;\r\n        listCandidate[candidatesCount] = Candidate(candidatesCount,name,0,age);\r\n    }\r\n\r\n}\r\n\r\n",
  "sourcePath": "D:\\Workspaces\\UET\\Special Topics on Technology ( block chain)\\election\\contracts\\Election.sol",
  "compiler": {
    "name": "solc",
    "version": "0.4.19+commit.c4cbbb05.Emscripten.clang"
  },
  "schemaVersion": "2.0.0",
  "updatedAt": "2018-05-06T18:28:52.561Z"
}